{
  "contractName": "SolnSquareVerifier",
  "abi": [
    {
      "constant": true,
      "inputs": [
        {
          "name": "interfaceId",
          "type": "bytes4"
        }
      ],
      "name": "supportsInterface",
      "outputs": [
        {
          "name": "",
          "type": "bool"
        }
      ],
      "payable": false,
      "stateMutability": "view",
      "type": "function"
    },
    {
      "constant": true,
      "inputs": [
        {
          "name": "tokenId",
          "type": "uint256"
        }
      ],
      "name": "getApproved",
      "outputs": [
        {
          "name": "",
          "type": "address"
        }
      ],
      "payable": false,
      "stateMutability": "view",
      "type": "function"
    },
    {
      "constant": false,
      "inputs": [
        {
          "name": "to",
          "type": "address"
        },
        {
          "name": "tokenId",
          "type": "uint256"
        }
      ],
      "name": "approve",
      "outputs": [],
      "payable": false,
      "stateMutability": "nonpayable",
      "type": "function"
    },
    {
      "constant": true,
      "inputs": [],
      "name": "getSymbol",
      "outputs": [
        {
          "name": "",
          "type": "string"
        }
      ],
      "payable": false,
      "stateMutability": "view",
      "type": "function"
    },
    {
      "constant": true,
      "inputs": [],
      "name": "getName",
      "outputs": [
        {
          "name": "",
          "type": "string"
        }
      ],
      "payable": false,
      "stateMutability": "view",
      "type": "function"
    },
    {
      "constant": true,
      "inputs": [],
      "name": "totalSupply",
      "outputs": [
        {
          "name": "",
          "type": "uint256"
        }
      ],
      "payable": false,
      "stateMutability": "view",
      "type": "function"
    },
    {
      "constant": false,
      "inputs": [
        {
          "name": "from",
          "type": "address"
        },
        {
          "name": "to",
          "type": "address"
        },
        {
          "name": "tokenId",
          "type": "uint256"
        }
      ],
      "name": "transferFrom",
      "outputs": [],
      "payable": false,
      "stateMutability": "nonpayable",
      "type": "function"
    },
    {
      "constant": false,
      "inputs": [
        {
          "name": "_myid",
          "type": "bytes32"
        },
        {
          "name": "_result",
          "type": "string"
        }
      ],
      "name": "__callback",
      "outputs": [],
      "payable": false,
      "stateMutability": "nonpayable",
      "type": "function"
    },
    {
      "constant": true,
      "inputs": [
        {
          "name": "owner",
          "type": "address"
        },
        {
          "name": "index",
          "type": "uint256"
        }
      ],
      "name": "tokenOfOwnerByIndex",
      "outputs": [
        {
          "name": "",
          "type": "uint256"
        }
      ],
      "payable": false,
      "stateMutability": "view",
      "type": "function"
    },
    {
      "constant": false,
      "inputs": [
        {
          "name": "_myid",
          "type": "bytes32"
        },
        {
          "name": "_result",
          "type": "string"
        },
        {
          "name": "_proof",
          "type": "bytes"
        }
      ],
      "name": "__callback",
      "outputs": [],
      "payable": false,
      "stateMutability": "nonpayable",
      "type": "function"
    },
    {
      "constant": false,
      "inputs": [],
      "name": "unpause",
      "outputs": [],
      "payable": false,
      "stateMutability": "nonpayable",
      "type": "function"
    },
    {
      "constant": false,
      "inputs": [
        {
          "name": "to",
          "type": "address"
        },
        {
          "name": "tokenID",
          "type": "uint256"
        }
      ],
      "name": "mint",
      "outputs": [
        {
          "name": "",
          "type": "bool"
        }
      ],
      "payable": false,
      "stateMutability": "nonpayable",
      "type": "function"
    },
    {
      "constant": false,
      "inputs": [
        {
          "name": "from",
          "type": "address"
        },
        {
          "name": "to",
          "type": "address"
        },
        {
          "name": "tokenId",
          "type": "uint256"
        }
      ],
      "name": "safeTransferFrom",
      "outputs": [],
      "payable": false,
      "stateMutability": "nonpayable",
      "type": "function"
    },
    {
      "constant": true,
      "inputs": [
        {
          "name": "index",
          "type": "uint256"
        }
      ],
      "name": "tokenByIndex",
      "outputs": [
        {
          "name": "",
          "type": "uint256"
        }
      ],
      "payable": false,
      "stateMutability": "view",
      "type": "function"
    },
    {
      "constant": true,
      "inputs": [
        {
          "name": "tokenId",
          "type": "uint256"
        }
      ],
      "name": "ownerOf",
      "outputs": [
        {
          "name": "",
          "type": "address"
        }
      ],
      "payable": false,
      "stateMutability": "view",
      "type": "function"
    },
    {
      "constant": true,
      "inputs": [
        {
          "name": "owner",
          "type": "address"
        }
      ],
      "name": "balanceOf",
      "outputs": [
        {
          "name": "",
          "type": "uint256"
        }
      ],
      "payable": false,
      "stateMutability": "view",
      "type": "function"
    },
    {
      "constant": false,
      "inputs": [],
      "name": "pause",
      "outputs": [],
      "payable": false,
      "stateMutability": "nonpayable",
      "type": "function"
    },
    {
      "constant": true,
      "inputs": [],
      "name": "getOwner",
      "outputs": [
        {
          "name": "",
          "type": "address"
        }
      ],
      "payable": false,
      "stateMutability": "view",
      "type": "function"
    },
    {
      "constant": true,
      "inputs": [],
      "name": "isOwner",
      "outputs": [
        {
          "name": "",
          "type": "bool"
        }
      ],
      "payable": false,
      "stateMutability": "view",
      "type": "function"
    },
    {
      "constant": false,
      "inputs": [
        {
          "name": "to",
          "type": "address"
        },
        {
          "name": "approved",
          "type": "bool"
        }
      ],
      "name": "setApprovalForAll",
      "outputs": [],
      "payable": false,
      "stateMutability": "nonpayable",
      "type": "function"
    },
    {
      "constant": false,
      "inputs": [
        {
          "name": "from",
          "type": "address"
        },
        {
          "name": "to",
          "type": "address"
        },
        {
          "name": "tokenId",
          "type": "uint256"
        },
        {
          "name": "_data",
          "type": "bytes"
        }
      ],
      "name": "safeTransferFrom",
      "outputs": [],
      "payable": false,
      "stateMutability": "nonpayable",
      "type": "function"
    },
    {
      "constant": true,
      "inputs": [],
      "name": "getBaseTokenURI",
      "outputs": [
        {
          "name": "",
          "type": "string"
        }
      ],
      "payable": false,
      "stateMutability": "view",
      "type": "function"
    },
    {
      "constant": true,
      "inputs": [
        {
          "name": "tokenId",
          "type": "uint256"
        }
      ],
      "name": "tokenURI",
      "outputs": [
        {
          "name": "",
          "type": "string"
        }
      ],
      "payable": false,
      "stateMutability": "view",
      "type": "function"
    },
    {
      "constant": true,
      "inputs": [
        {
          "name": "owner",
          "type": "address"
        },
        {
          "name": "operator",
          "type": "address"
        }
      ],
      "name": "isApprovedForAll",
      "outputs": [
        {
          "name": "",
          "type": "bool"
        }
      ],
      "payable": false,
      "stateMutability": "view",
      "type": "function"
    },
    {
      "constant": false,
      "inputs": [
        {
          "name": "newOwner",
          "type": "address"
        }
      ],
      "name": "transferOwnership",
      "outputs": [],
      "payable": false,
      "stateMutability": "nonpayable",
      "type": "function"
    },
    {
      "inputs": [
        {
          "name": "_address",
          "type": "address"
        }
      ],
      "payable": false,
      "stateMutability": "nonpayable",
      "type": "constructor"
    },
    {
      "anonymous": false,
      "inputs": [
        {
          "indexed": false,
          "name": "_address",
          "type": "address"
        }
      ],
      "name": "solutionAdded",
      "type": "event"
    },
    {
      "anonymous": false,
      "inputs": [
        {
          "indexed": true,
          "name": "from",
          "type": "address"
        },
        {
          "indexed": true,
          "name": "to",
          "type": "address"
        },
        {
          "indexed": true,
          "name": "tokenId",
          "type": "uint256"
        }
      ],
      "name": "Transfer",
      "type": "event"
    },
    {
      "anonymous": false,
      "inputs": [
        {
          "indexed": true,
          "name": "owner",
          "type": "address"
        },
        {
          "indexed": true,
          "name": "approved",
          "type": "address"
        },
        {
          "indexed": true,
          "name": "tokenId",
          "type": "uint256"
        }
      ],
      "name": "Approval",
      "type": "event"
    },
    {
      "anonymous": false,
      "inputs": [
        {
          "indexed": true,
          "name": "owner",
          "type": "address"
        },
        {
          "indexed": true,
          "name": "operator",
          "type": "address"
        },
        {
          "indexed": false,
          "name": "approved",
          "type": "bool"
        }
      ],
      "name": "ApprovalForAll",
      "type": "event"
    },
    {
      "anonymous": false,
      "inputs": [
        {
          "indexed": false,
          "name": "_address",
          "type": "address"
        }
      ],
      "name": "Paused",
      "type": "event"
    },
    {
      "anonymous": false,
      "inputs": [
        {
          "indexed": false,
          "name": "_address",
          "type": "address"
        }
      ],
      "name": "Unpaused",
      "type": "event"
    },
    {
      "anonymous": false,
      "inputs": [
        {
          "indexed": false,
          "name": "_prevOwner",
          "type": "address"
        },
        {
          "indexed": false,
          "name": "_newOwner",
          "type": "address"
        }
      ],
      "name": "OwnerShipTransferred",
      "type": "event"
    },
    {
      "constant": false,
      "inputs": [
        {
          "name": "_solutionadd",
          "type": "address"
        },
        {
          "name": "_id",
          "type": "uint256"
        },
        {
          "name": "key",
          "type": "bytes32"
        }
      ],
      "name": "addSolution",
      "outputs": [],
      "payable": false,
      "stateMutability": "nonpayable",
      "type": "function"
    },
    {
      "constant": true,
      "inputs": [
        {
          "name": "a",
          "type": "uint256[2]"
        },
        {
          "name": "b",
          "type": "uint256[2][2]"
        },
        {
          "name": "c",
          "type": "uint256[2]"
        },
        {
          "name": "input",
          "type": "uint256[2]"
        }
      ],
      "name": "getKey",
      "outputs": [
        {
          "name": "",
          "type": "bytes32"
        }
      ],
      "payable": false,
      "stateMutability": "view",
      "type": "function"
    },
    {
      "constant": false,
      "inputs": [
        {
          "name": "_to",
          "type": "address"
        },
        {
          "name": "_tokenId",
          "type": "uint256"
        },
        {
          "name": "a",
          "type": "uint256[2]"
        },
        {
          "name": "b",
          "type": "uint256[2][2]"
        },
        {
          "name": "c",
          "type": "uint256[2]"
        },
        {
          "name": "input",
          "type": "uint256[2]"
        }
      ],
      "name": "mintNewNFT",
      "outputs": [],
      "payable": false,
      "stateMutability": "nonpayable",
      "type": "function"
    }
  ],
  "bytecode": "0x60806040526040805190810160405280600681526020017f4b7572736f72000000000000000000000000000000000000000000000000000081525060139080519060200190620000519291906200064b565b506040805190810160405280600381526020017f4b75720000000000000000000000000000000000000000000000000000000000815250601490805190602001906200009f9291906200064b565b50606060405190810160405280603f8152602001620042a9603f913960159080519060200190620000d29291906200064b565b50348015620000e057600080fd5b50604051602080620042e8833981018060405260208110156200010257600080fd5b810190808051906020019092919050505060138054600181600116156101000203166002900480601f016020809104026020016040519081016040528092919081815260200182805460018160011615610100020316600290048015620001ad5780601f106200018157610100808354040283529160200191620001ad565b820191906000526020600020905b8154815290600101906020018083116200018f57829003601f168201915b505050505060148054600181600116156101000203166002900480601f0160208091040260200160405190810160405280929190818152602001828054600181600116156101000203166002900480156200024c5780601f1062000220576101008083540402835291602001916200024c565b820191906000526020600020905b8154815290600101906020018083116200022e57829003601f168201915b505050505060158054600181600116156101000203166002900480601f016020809104026020016040519081016040528092919081815260200182805460018160011615610100020316600290048015620002eb5780601f10620002bf57610100808354040283529160200191620002eb565b820191906000526020600020905b815481529060010190602001808311620002cd57829003601f168201915b5050505050336000806101000a81548173ffffffffffffffffffffffffffffffffffffffff021916908373ffffffffffffffffffffffffffffffffffffffff1602179055507f370116ad724b3fc87a2f6ff5e76e5a8cc7045b232d1431b7a4bca898c26fdace60008060009054906101000a900473ffffffffffffffffffffffffffffffffffffffff16604051808373ffffffffffffffffffffffffffffffffffffffff1673ffffffffffffffffffffffffffffffffffffffff1681526020018273ffffffffffffffffffffffffffffffffffffffff1673ffffffffffffffffffffffffffffffffffffffff1681526020019250505060405180910390a160008060146101000a81548160ff021916908315150217905550620004406301ffc9a77c0100000000000000000000000000000000000000000000000000000000026200058d640100000000026401000000009004565b6200047d6380ac58cd7c0100000000000000000000000000000000000000000000000000000000026200058d640100000000026401000000009004565b620004ba63780e9d637c0100000000000000000000000000000000000000000000000000000000026200058d640100000000026401000000009004565b82600f9080519060200190620004d29291906200064b565b508160109080519060200190620004eb9291906200064b565b508060119080519060200190620005049291906200064b565b5062000542635b5e139f7c0100000000000000000000000000000000000000000000000000000000026200058d640100000000026401000000009004565b50505080601660006101000a81548173ffffffffffffffffffffffffffffffffffffffff021916908373ffffffffffffffffffffffffffffffffffffffff16021790555050620006fa565b63ffffffff7c010000000000000000000000000000000000000000000000000000000002817bffffffffffffffffffffffffffffffffffffffffffffffffffffffff191614151515620005df57600080fd5b6001806000837bffffffffffffffffffffffffffffffffffffffffffffffffffffffff19167bffffffffffffffffffffffffffffffffffffffffffffffffffffffff1916815260200190815260200160002060006101000a81548160ff02191690831515021790555050565b828054600181600116156101000203166002900490600052602060002090601f016020900481019282601f106200068e57805160ff1916838001178555620006bf565b82800160010185558215620006bf579182015b82811115620006be578251825591602001919060010190620006a1565b5b509050620006ce9190620006d2565b5090565b620006f791905b80821115620006f3576000816000905550600101620006d9565b5090565b90565b613b9f806200070a6000396000f3fe608060405234801561001057600080fd5b50600436106101e1576000357c0100000000000000000000000000000000000000000000000000000000900480636352211e116101165780638f32d59b116100b4578063bdc32be01161008e578063bdc32be014610e25578063c87b56dd14610ea8578063e985e9c514610f4f578063f2fde38b14610fcb576101e1565b80638f32d59b14610cae578063a22cb46514610cd0578063b88d4fde14610d20576101e1565b806374690502116100f05780637469050214610a8d57806383348b6414610ae55780638456cb5914610c5a578063893d20e814610c64576101e1565b80636352211e1461083c5780636aa69d4e146108aa57806370a0823114610a35576101e1565b806327dc297e116101835780633f4ba83a1161015d5780633f4ba83a1461071c57806340c10f191461072657806342842e0e1461078c5780634f6ccce7146107fa576101e1565b806327dc297e146104995780632f745c591461055e57806338bbfa50146105c0576101e1565b806315070401116101bf578063150704011461030757806317d7de7c1461038a57806318160ddd1461040d57806323b872dd1461042b576101e1565b806301ffc9a7146101e6578063081812fc1461024b578063095ea7b3146102b9575b600080fd5b610231600480360360208110156101fc57600080fd5b8101908080357bffffffffffffffffffffffffffffffffffffffffffffffffffffffff1916906020019092919050505061100f565b604051808215151515815260200191505060405180910390f35b6102776004803603602081101561026157600080fd5b8101908080359060200190929190505050611077565b604051808273ffffffffffffffffffffffffffffffffffffffff1673ffffffffffffffffffffffffffffffffffffffff16815260200191505060405180910390f35b610305600480360360408110156102cf57600080fd5b81019080803573ffffffffffffffffffffffffffffffffffffffff16906020019092919080359060200190929190505050611131565b005b61030f61132b565b6040518080602001828103825283818151815260200191508051906020019080838360005b8381101561034f578082015181840152602081019050610334565b50505050905090810190601f16801561037c5780820380516001836020036101000a031916815260200191505b509250505060405180910390f35b6103926113cd565b6040518080602001828103825283818151815260200191508051906020019080838360005b838110156103d25780820151818401526020810190506103b7565b50505050905090810190601f1680156103ff5780820380516001836020036101000a031916815260200191505b509250505060405180910390f35b61041561146f565b6040518082815260200191505060405180910390f35b6104976004803603606081101561044157600080fd5b81019080803573ffffffffffffffffffffffffffffffffffffffff169060200190929190803573ffffffffffffffffffffffffffffffffffffffff1690602001909291908035906020019092919050505061147c565b005b61055c600480360360408110156104af57600080fd5b8101908080359060200190929190803590602001906401000000008111156104d657600080fd5b8201836020820111156104e857600080fd5b8035906020019184600183028401116401000000008311171561050a57600080fd5b91908080601f016020809104026020016040519081016040528093929190818152602001838380828437600081840152601f19601f8201169050808301925050505050505091929192905050506114a1565b005b6105aa6004803603604081101561057457600080fd5b81019080803573ffffffffffffffffffffffffffffffffffffffff169060200190929190803590602001909291905050506114e4565b6040518082815260200191505060405180910390f35b61071a600480360360608110156105d657600080fd5b8101908080359060200190929190803590602001906401000000008111156105fd57600080fd5b82018360208201111561060f57600080fd5b8035906020019184600183028401116401000000008311171561063157600080fd5b91908080601f016020809104026020016040519081016040528093929190818152602001838380828437600081840152601f19601f8201169050808301925050505050505091929192908035906020019064010000000081111561069457600080fd5b8201836020820111156106a657600080fd5b803590602001918460018302840111640100000000831117156106c857600080fd5b91908080601f016020809104026020016040519081016040528093929190818152602001838380828437600081840152601f19601f82011690508083019250505050505050919291929050505061155b565b005b610724611560565b005b6107726004803603604081101561073c57600080fd5b81019080803573ffffffffffffffffffffffffffffffffffffffff16906020019092919080359060200190929190505050611728565b604051808215151515815260200191505060405180910390f35b6107f8600480360360608110156107a257600080fd5b81019080803573ffffffffffffffffffffffffffffffffffffffff169060200190929190803573ffffffffffffffffffffffffffffffffffffffff1690602001909291908035906020019092919050505061180b565b005b6108266004803603602081101561081057600080fd5b810190808035906020019092919050505061182c565b6040518082815260200191505060405180910390f35b6108686004803603602081101561085257600080fd5b8101908080359060200190929190505050611864565b604051808273ffffffffffffffffffffffffffffffffffffffff1673ffffffffffffffffffffffffffffffffffffffff16815260200191505060405180910390f35b610a3360048036036101808110156108c157600080fd5b81019080803573ffffffffffffffffffffffffffffffffffffffff1690602001909291908035906020019092919080604001906002806020026040519081016040528092919082600260200280828437600081840152601f19601f82011690508083019250505050505091929192908060800190600280602002604051908101604052809291906000905b828210156109a0578382604002016002806020026040519081016040528092919082600260200280828437600081840152601f19601f8201169050808301925050505050508152602001906001019061094c565b50505050919291929080604001906002806020026040519081016040528092919082600260200280828437600081840152601f19601f820116905080830192505050505050919291929080604001906002806020026040519081016040528092919082600260200280828437600081840152601f19601f82011690508083019250505050505091929192905050506118a1565b005b610a7760048036036020811015610a4b57600080fd5b81019080803573ffffffffffffffffffffffffffffffffffffffff169060200190929190505050611ba8565b6040518082815260200191505060405180910390f35b610ae360048036036060811015610aa357600080fd5b81019080803573ffffffffffffffffffffffffffffffffffffffff1690602001909291908035906020019092919080359060200190929190505050611c9c565b005b610c446004803603610140811015610afc57600080fd5b8101908080604001906002806020026040519081016040528092919082600260200280828437600081840152601f19601f82011690508083019250505050505091929192908060800190600280602002604051908101604052809291906000905b82821015610bb1578382604002016002806020026040519081016040528092919082600260200280828437600081840152601f19601f82011690508083019250505050505081526020019060010190610b5d565b50505050919291929080604001906002806020026040519081016040528092919082600260200280828437600081840152601f19601f820116905080830192505050505050919291929080604001906002806020026040519081016040528092919082600260200280828437600081840152601f19601f8201169050808301925050505050509192919290505050611dc1565b6040518082815260200191505060405180910390f35b610c62611ecf565b005b610c6c612097565b604051808273ffffffffffffffffffffffffffffffffffffffff1673ffffffffffffffffffffffffffffffffffffffff16815260200191505060405180910390f35b610cb66120c2565b604051808215151515815260200191505060405180910390f35b610d1e60048036036040811015610ce657600080fd5b81019080803573ffffffffffffffffffffffffffffffffffffffff169060200190929190803515159060200190929190505050612119565b005b610e2360048036036080811015610d3657600080fd5b81019080803573ffffffffffffffffffffffffffffffffffffffff169060200190929190803573ffffffffffffffffffffffffffffffffffffffff1690602001909291908035906020019092919080359060200190640100000000811115610d9d57600080fd5b820183602082011115610daf57600080fd5b80359060200191846001830284011164010000000083111715610dd157600080fd5b91908080601f016020809104026020016040519081016040528093929190818152602001838380828437600081840152601f19601f820116905080830192505050505050509192919290505050612255565b005b610e2d61227d565b6040518080602001828103825283818151815260200191508051906020019080838360005b83811015610e6d578082015181840152602081019050610e52565b50505050905090810190601f168015610e9a5780820380516001836020036101000a031916815260200191505b509250505060405180910390f35b610ed460048036036020811015610ebe57600080fd5b810190808035906020019092919050505061231f565b6040518080602001828103825283818151815260200191508051906020019080838360005b83811015610f14578082015181840152602081019050610ef9565b50505050905090810190601f168015610f415780820380516001836020036101000a031916815260200191505b509250505060405180910390f35b610fb160048036036040811015610f6557600080fd5b81019080803573ffffffffffffffffffffffffffffffffffffffff169060200190929190803573ffffffffffffffffffffffffffffffffffffffff1690602001909291905050506123e8565b604051808215151515815260200191505060405180910390f35b61100d60048036036020811015610fe157600080fd5b81019080803573ffffffffffffffffffffffffffffffffffffffff16906020019092919050505061247c565b005b600060016000837bffffffffffffffffffffffffffffffffffffffffffffffffffffffff19167bffffffffffffffffffffffffffffffffffffffffffffffffffffffff1916815260200190815260200160002060009054906101000a900460ff169050919050565b60006110828261254c565b15156110f6576040517f08c379a00000000000000000000000000000000000000000000000000000000081526004018080602001828103825260188152602001807f546f6b656e20496420646f6573206e6f7420657869737473000000000000000081525060200191505060405180910390fd5b6003600083815260200190815260200160002060009054906101000a900473ffffffffffffffffffffffffffffffffffffffff169050919050565b600061113c82611864565b90508273ffffffffffffffffffffffffffffffffffffffff168173ffffffffffffffffffffffffffffffffffffffff16141515156111c5576040517f08c379a0000000000000000000000000000000000000000000000000000000008152600401808060200182810382526022815260200180613adb6022913960400191505060405180910390fd5b8073ffffffffffffffffffffffffffffffffffffffff163373ffffffffffffffffffffffffffffffffffffffff161480611205575061120481336123e8565b5b1515611279576040517f08c379a000000000000000000000000000000000000000000000000000000000815260040180806020018281038252601f8152602001807f53656e646572206973206e6f74206f776e6572206f6620636f6e74726163740081525060200191505060405180910390fd5b826003600084815260200190815260200160002060006101000a81548173ffffffffffffffffffffffffffffffffffffffff021916908373ffffffffffffffffffffffffffffffffffffffff160217905550818373ffffffffffffffffffffffffffffffffffffffff168273ffffffffffffffffffffffffffffffffffffffff167f8c5be1e5ebec7d5bd14f71427d1e84f3dd0314c0f7b2291e5b200ac8c7c3b92560405160405180910390a4505050565b606060108054600181600116156101000203166002900480601f0160208091040260200160405190810160405280929190818152602001828054600181600116156101000203166002900480156113c35780601f10611398576101008083540402835291602001916113c3565b820191906000526020600020905b8154815290600101906020018083116113a657829003601f168201915b5050505050905090565b6060600f8054600181600116156101000203166002900480601f0160208091040260200160405190810160405280929190818152602001828054600181600116156101000203166002900480156114655780601f1061143a57610100808354040283529160200191611465565b820191906000526020600020905b81548152906001019060200180831161144857829003601f168201915b5050505050905090565b6000600880549050905090565b61148633826125be565b151561149157600080fd5b61149c838383612653565b505050565b6114e0828260006040519080825280601f01601f1916602001820160405280156114da5781602001600182028038833980820191505090505b5061155b565b5050565b60006114ef83611ba8565b821015156114fc57600080fd5b600660008473ffffffffffffffffffffffffffffffffffffffff1673ffffffffffffffffffffffffffffffffffffffff1681526020019081526020016000208281548110151561154857fe5b9060005260206000200154905092915050565b505050565b6000809054906101000a900473ffffffffffffffffffffffffffffffffffffffff1673ffffffffffffffffffffffffffffffffffffffff163373ffffffffffffffffffffffffffffffffffffffff16141515611624576040517f08c379a00000000000000000000000000000000000000000000000000000000081526004018080602001828103825260138152602001807f43616c6c6572206973206e6f74206f776e65720000000000000000000000000081525060200191505060405180910390fd5b600060149054906101000a900460ff161515156116a9576040517f08c379a00000000000000000000000000000000000000000000000000000000081526004018080602001828103825260168152602001807f436f6e7472616374206973206e6f74207061757365640000000000000000000081525060200191505060405180910390fd5b60008060146101000a81548160ff0219169083151502179055507f5db9ee0a495bf2e6ff9c91a7834c1ba4fdd244a5e8aa4e537bd38aeae4b073aa33604051808273ffffffffffffffffffffffffffffffffffffffff1673ffffffffffffffffffffffffffffffffffffffff16815260200191505060405180910390a1565b60008060009054906101000a900473ffffffffffffffffffffffffffffffffffffffff1673ffffffffffffffffffffffffffffffffffffffff163373ffffffffffffffffffffffffffffffffffffffff161415156117ee576040517f08c379a00000000000000000000000000000000000000000000000000000000081526004018080602001828103825260138152602001807f43616c6c6572206973206e6f74206f776e65720000000000000000000000000081525060200191505060405180910390fd5b6117f88383612677565b61180182612698565b6001905092915050565b6118278383836020604051908101604052806000815250612255565b505050565b600061183661146f565b8210151561184357600080fd5b60088281548110151561185257fe5b90600052602060002001549050919050565b60006002600083815260200190815260200160002060009054906101000a900473ffffffffffffffffffffffffffffffffffffffff169050919050565b60006118af85858585611dc1565b9050600073ffffffffffffffffffffffffffffffffffffffff166018600083815260200190815260200160002060010160009054906101000a900473ffffffffffffffffffffffffffffffffffffffff1673ffffffffffffffffffffffffffffffffffffffff1614151561196e576040517f08c379a0000000000000000000000000000000000000000000000000000000008152600401808060200182810382526028815260200180613b206028913960400191505060405180910390fd5b601660009054906101000a900473ffffffffffffffffffffffffffffffffffffffff1673ffffffffffffffffffffffffffffffffffffffff1663621e9ec0868686866040518563ffffffff167c01000000000000000000000000000000000000000000000000000000000281526004018085600260200280838360005b83811015611a065780820151818401526020810190506119eb565b505050509050018460026000925b81841015611a5a5782846020020151600260200280838360005b83811015611a49578082015181840152602081019050611a2e565b505050509050019260010192611a14565b9250505083600260200280838360005b83811015611a85578082015181840152602081019050611a6a565b5050505090500182600260200280838360005b83811015611ab3578082015181840152602081019050611a98565b50505050905001945050505050602060405180830381600087803b158015611ada57600080fd5b505af1158015611aee573d6000803e3d6000fd5b505050506040513d6020811015611b0457600080fd5b81019080805190602001909291905050501515611b89576040517f08c379a00000000000000000000000000000000000000000000000000000000081526004018080602001828103825260128152602001807f496e636f727265637420736f6c7574696f6e000000000000000000000000000081525060200191505060405180910390fd5b611b94878783611c9c565b611b9e8787611728565b5050505050505050565b60008073ffffffffffffffffffffffffffffffffffffffff168273ffffffffffffffffffffffffffffffffffffffff1614151515611c4e576040517f08c379a00000000000000000000000000000000000000000000000000000000081526004018080602001828103825260178152602001807f4f776e65722061646472657373206e6f742076616c696400000000000000000081525060200191505060405180910390fd5b611c95600460008473ffffffffffffffffffffffffffffffffffffffff1673ffffffffffffffffffffffffffffffffffffffff1681526020019081526020016000206127eb565b9050919050565b611ca46139d9565b60408051908101604052808481526020018573ffffffffffffffffffffffffffffffffffffffff16815250905080601860008481526020019081526020016000206000820151816000015560208201518160010160006101000a81548173ffffffffffffffffffffffffffffffffffffffff021916908373ffffffffffffffffffffffffffffffffffffffff160217905550905050601781908060018154018082558091505090600182039060005260206000209060020201600090919290919091506000820151816000015560208201518160010160006101000a81548173ffffffffffffffffffffffffffffffffffffffff021916908373ffffffffffffffffffffffffffffffffffffffff16021790555050505050505050565b6000848484846040516020018085600260200280838360005b83811015611df5578082015181840152602081019050611dda565b505050509050018460026000925b81841015611e495782846020020151600260200280838360005b83811015611e38578082015181840152602081019050611e1d565b505050509050019260010192611e03565b9250505083600260200280838360005b83811015611e74578082015181840152602081019050611e59565b5050505090500182600260200280838360005b83811015611ea2578082015181840152602081019050611e87565b50505050905001945050505050604051602081830303815290604052805190602001209050949350505050565b6000809054906101000a900473ffffffffffffffffffffffffffffffffffffffff1673ffffffffffffffffffffffffffffffffffffffff163373ffffffffffffffffffffffffffffffffffffffff16141515611f93576040517f08c379a00000000000000000000000000000000000000000000000000000000081526004018080602001828103825260138152602001807f43616c6c6572206973206e6f74206f776e65720000000000000000000000000081525060200191505060405180910390fd5b600060149054906101000a900460ff161515612017576040517f08c379a00000000000000000000000000000000000000000000000000000000081526004018080602001828103825260128152602001807f436f6e747261637420697320706175736564000000000000000000000000000081525060200191505060405180910390fd5b6001600060146101000a81548160ff0219169083151502179055507f62e78cea01bee320cd4e420270b5ea74000d11b0c9f74754ebdbfc544b05a25833604051808273ffffffffffffffffffffffffffffffffffffffff1673ffffffffffffffffffffffffffffffffffffffff16815260200191505060405180910390a1565b6000806000809054906101000a900473ffffffffffffffffffffffffffffffffffffffff1690505090565b60008060009054906101000a900473ffffffffffffffffffffffffffffffffffffffff1673ffffffffffffffffffffffffffffffffffffffff163373ffffffffffffffffffffffffffffffffffffffff1614905090565b3373ffffffffffffffffffffffffffffffffffffffff168273ffffffffffffffffffffffffffffffffffffffff161415151561215457600080fd5b80600560003373ffffffffffffffffffffffffffffffffffffffff1673ffffffffffffffffffffffffffffffffffffffff16815260200190815260200160002060008473ffffffffffffffffffffffffffffffffffffffff1673ffffffffffffffffffffffffffffffffffffffff16815260200190815260200160002060006101000a81548160ff0219169083151502179055508173ffffffffffffffffffffffffffffffffffffffff163373ffffffffffffffffffffffffffffffffffffffff167f17307eab39ab6107e8899845ad3d59bd9653f200f220920489ca2b5937696c3183604051808215151515815260200191505060405180910390a35050565b61226084848461147c565b61226c848484846127f9565b151561227757600080fd5b50505050565b606060118054600181600116156101000203166002900480601f0160208091040260200160405190810160405280929190818152602001828054600181600116156101000203166002900480156123155780601f106122ea57610100808354040283529160200191612315565b820191906000526020600020905b8154815290600101906020018083116122f857829003601f168201915b5050505050905090565b606061232a8261254c565b151561233557600080fd5b601260008381526020019081526020016000208054600181600116156101000203166002900480601f0160208091040260200160405190810160405280929190818152602001828054600181600116156101000203166002900480156123dc5780601f106123b1576101008083540402835291602001916123dc565b820191906000526020600020905b8154815290600101906020018083116123bf57829003601f168201915b50505050509050919050565b6000600560008473ffffffffffffffffffffffffffffffffffffffff1673ffffffffffffffffffffffffffffffffffffffff16815260200190815260200160002060008373ffffffffffffffffffffffffffffffffffffffff1673ffffffffffffffffffffffffffffffffffffffff16815260200190815260200160002060009054906101000a900460ff16905092915050565b6000809054906101000a900473ffffffffffffffffffffffffffffffffffffffff1673ffffffffffffffffffffffffffffffffffffffff163373ffffffffffffffffffffffffffffffffffffffff16141515612540576040517f08c379a00000000000000000000000000000000000000000000000000000000081526004018080602001828103825260138152602001807f43616c6c6572206973206e6f74206f776e65720000000000000000000000000081525060200191505060405180910390fd5b61254981612a1c565b50565b6000806002600084815260200190815260200160002060009054906101000a900473ffffffffffffffffffffffffffffffffffffffff169050600073ffffffffffffffffffffffffffffffffffffffff168173ffffffffffffffffffffffffffffffffffffffff161415915050919050565b6000806125ca83611864565b90508073ffffffffffffffffffffffffffffffffffffffff168473ffffffffffffffffffffffffffffffffffffffff16148061263957508373ffffffffffffffffffffffffffffffffffffffff1661262184611077565b73ffffffffffffffffffffffffffffffffffffffff16145b8061264a575061264981856123e8565b5b91505092915050565b61265e838383612bbc565b6126688382612e3e565b6126728282612fe2565b505050565b61268182826130a9565b61268b8282612fe2565b6126948161323b565b5050565b6126a18161254c565b1515612715576040517f08c379a00000000000000000000000000000000000000000000000000000000081526004018080602001828103825260188152602001807f546f6b656e20496420646f6573206e6f7420657869737473000000000000000081525060200191505060405180910390fd5b6127c160118054600181600116156101000203166002900480601f0160208091040260200160405190810160405280929190818152602001828054600181600116156101000203166002900480156127ae5780601f10612783576101008083540402835291602001916127ae565b820191906000526020600020905b81548152906001019060200180831161279157829003601f168201915b50505050506127bc83613287565b6133e0565b6012600083815260200190815260200160002090805190602001906127e7929190613a09565b5050565b600081600001549050919050565b600061281a8473ffffffffffffffffffffffffffffffffffffffff16613427565b15156128295760019050612a14565b60008473ffffffffffffffffffffffffffffffffffffffff1663150b7a02338887876040518563ffffffff167c0100000000000000000000000000000000000000000000000000000000028152600401808573ffffffffffffffffffffffffffffffffffffffff1673ffffffffffffffffffffffffffffffffffffffff1681526020018473ffffffffffffffffffffffffffffffffffffffff1673ffffffffffffffffffffffffffffffffffffffff16815260200183815260200180602001828103825283818151815260200191508051906020019080838360005b83811015612920578082015181840152602081019050612905565b50505050905090810190601f16801561294d5780820380516001836020036101000a031916815260200191505b5095505050505050602060405180830381600087803b15801561296f57600080fd5b505af1158015612983573d6000803e3d6000fd5b505050506040513d602081101561299957600080fd5b8101908080519060200190929190505050905063150b7a027c0100000000000000000000000000000000000000000000000000000000027bffffffffffffffffffffffffffffffffffffffffffffffffffffffff1916817bffffffffffffffffffffffffffffffffffffffffffffffffffffffff1916149150505b949350505050565b600073ffffffffffffffffffffffffffffffffffffffff168173ffffffffffffffffffffffffffffffffffffffff1614151515612ac1576040517f08c379a000000000000000000000000000000000000000000000000000000000815260040180806020018281038252601f8152602001807f72657175697265206e6577206164647265737320746f207472616e736665720081525060200191505060405180910390fd5b7f370116ad724b3fc87a2f6ff5e76e5a8cc7045b232d1431b7a4bca898c26fdace6000809054906101000a900473ffffffffffffffffffffffffffffffffffffffff1682604051808373ffffffffffffffffffffffffffffffffffffffff1673ffffffffffffffffffffffffffffffffffffffff1681526020018273ffffffffffffffffffffffffffffffffffffffff1673ffffffffffffffffffffffffffffffffffffffff1681526020019250505060405180910390a1806000806101000a81548173ffffffffffffffffffffffffffffffffffffffff021916908373ffffffffffffffffffffffffffffffffffffffff16021790555050565b6000612bc782611864565b90508073ffffffffffffffffffffffffffffffffffffffff168473ffffffffffffffffffffffffffffffffffffffff16141515612c4f576040517f08c379a0000000000000000000000000000000000000000000000000000000008152600401808060200182810382526023815260200180613afd6023913960400191505060405180910390fd5b600073ffffffffffffffffffffffffffffffffffffffff168373ffffffffffffffffffffffffffffffffffffffff1614151515612cf4576040517f08c379a00000000000000000000000000000000000000000000000000000000081526004018080602001828103825260138152602001807f4e6f7420612076616c696420616464726573730000000000000000000000000081525060200191505060405180910390fd5b612cfd8261343a565b612d44600460008673ffffffffffffffffffffffffffffffffffffffff1673ffffffffffffffffffffffffffffffffffffffff1681526020019081526020016000206134fa565b612d8b600460008573ffffffffffffffffffffffffffffffffffffffff1673ffffffffffffffffffffffffffffffffffffffff16815260200190815260200160002061351d565b826002600084815260200190815260200160002060006101000a81548173ffffffffffffffffffffffffffffffffffffffff021916908373ffffffffffffffffffffffffffffffffffffffff160217905550818373ffffffffffffffffffffffffffffffffffffffff168573ffffffffffffffffffffffffffffffffffffffff167fddf252ad1be2c89b69c2b068fc378daa952ba7f163c4a11628f55a4df523b3ef60405160405180910390a450505050565b6000612e966001600660008673ffffffffffffffffffffffffffffffffffffffff1673ffffffffffffffffffffffffffffffffffffffff1681526020019081526020016000208054905061353390919063ffffffff16565b90506000600760008481526020019081526020016000205490508181141515612f89576000600660008673ffffffffffffffffffffffffffffffffffffffff1673ffffffffffffffffffffffffffffffffffffffff16815260200190815260200160002083815481101515612f0757fe5b9060005260206000200154905080600660008773ffffffffffffffffffffffffffffffffffffffff1673ffffffffffffffffffffffffffffffffffffffff16815260200190815260200160002083815481101515612f6157fe5b9060005260206000200181905550816007600083815260200190815260200160002081905550505b600660008573ffffffffffffffffffffffffffffffffffffffff1673ffffffffffffffffffffffffffffffffffffffff168152602001908152602001600020805480919060019003612fdb9190613a89565b5050505050565b600660008373ffffffffffffffffffffffffffffffffffffffff1673ffffffffffffffffffffffffffffffffffffffff168152602001908152602001600020805490506007600083815260200190815260200160002081905550600660008373ffffffffffffffffffffffffffffffffffffffff1673ffffffffffffffffffffffffffffffffffffffff1681526020019081526020016000208190806001815401808255809150509060018203906000526020600020016000909192909190915055505050565b600073ffffffffffffffffffffffffffffffffffffffff168273ffffffffffffffffffffffffffffffffffffffff161415806130eb57506130e98161254c565b155b1515613142576040517f08c379a000000000000000000000000000000000000000000000000000000000815260040180806020018281038252602c815260200180613b48602c913960400191505060405180910390fd5b816002600083815260200190815260200160002060006101000a81548173ffffffffffffffffffffffffffffffffffffffff021916908373ffffffffffffffffffffffffffffffffffffffff1602179055506131db600460008473ffffffffffffffffffffffffffffffffffffffff1673ffffffffffffffffffffffffffffffffffffffff16815260200190815260200160002061351d565b808273ffffffffffffffffffffffffffffffffffffffff16600073ffffffffffffffffffffffffffffffffffffffff167fddf252ad1be2c89b69c2b068fc378daa952ba7f163c4a11628f55a4df523b3ef60405160405180910390a45050565b6008805490506009600083815260200190815260200160002081905550600881908060018154018082558091505090600182039060005260206000200160009091929091909150555050565b606060008214156132cf576040805190810160405280600181526020017f300000000000000000000000000000000000000000000000000000000000000081525090506133db565b600082905060005b6000821415156132fd578080600101915050600a828115156132f557fe5b0491506132d7565b6060816040519080825280601f01601f1916602001820160405280156133325781602001600182028038833980820191505090505b50905060006001830390505b6000861415156133d357600a8681151561335457fe5b066030017f01000000000000000000000000000000000000000000000000000000000000000282828060019003935081518110151561338f57fe5b9060200101907effffffffffffffffffffffffffffffffffffffffffffffffffffffffffffff1916908160001a905350600a868115156133cb57fe5b04955061333e565b819450505050505b919050565b606061341f83836020604051908101604052806000815250602060405190810160405280600081525060206040519081016040528060008152506135be565b905092915050565b600080823b905060008111915050919050565b600073ffffffffffffffffffffffffffffffffffffffff166003600083815260200190815260200160002060009054906101000a900473ffffffffffffffffffffffffffffffffffffffff1673ffffffffffffffffffffffffffffffffffffffff161415156134f75760006003600083815260200190815260200160002060006101000a81548173ffffffffffffffffffffffffffffffffffffffff021916908373ffffffffffffffffffffffffffffffffffffffff1602179055505b50565b6135126001826000015461353390919063ffffffff16565b816000018190555050565b6001816000016000828254019250508190555050565b60008282111515156135ad576040517f08c379a000000000000000000000000000000000000000000000000000000000815260040180806020018281038252601e8152602001807f536166654d6174683a207375627472616374696f6e206f766572666c6f77000081525060200191505060405180910390fd5b600082840390508091505092915050565b6060808690506060869050606086905060608690506060869050606081518351855187518951010101016040519080825280601f01601f19166020018201604052801561361a5781602001600182028038833980820191505090505b509050606081905060008090506000809050600090505b88518110156136e457888181518110151561364857fe5b9060200101517f010000000000000000000000000000000000000000000000000000000000000090047f01000000000000000000000000000000000000000000000000000000000000000283838060010194508151811015156136a757fe5b9060200101907effffffffffffffffffffffffffffffffffffffffffffffffffffffffffffff1916908160001a9053508080600101915050613631565b600090505b875181101561379c57878181518110151561370057fe5b9060200101517f010000000000000000000000000000000000000000000000000000000000000090047f010000000000000000000000000000000000000000000000000000000000000002838380600101945081518110151561375f57fe5b9060200101907effffffffffffffffffffffffffffffffffffffffffffffffffffffffffffff1916908160001a90535080806001019150506136e9565b600090505b86518110156138545786818151811015156137b857fe5b9060200101517f010000000000000000000000000000000000000000000000000000000000000090047f010000000000000000000000000000000000000000000000000000000000000002838380600101945081518110151561381757fe5b9060200101907effffffffffffffffffffffffffffffffffffffffffffffffffffffffffffff1916908160001a90535080806001019150506137a1565b600090505b855181101561390c57858181518110151561387057fe5b9060200101517f010000000000000000000000000000000000000000000000000000000000000090047f01000000000000000000000000000000000000000000000000000000000000000283838060010194508151811015156138cf57fe5b9060200101907effffffffffffffffffffffffffffffffffffffffffffffffffffffffffffff1916908160001a9053508080600101915050613859565b600090505b84518110156139c457848181518110151561392857fe5b9060200101517f010000000000000000000000000000000000000000000000000000000000000090047f010000000000000000000000000000000000000000000000000000000000000002838380600101945081518110151561398757fe5b9060200101907effffffffffffffffffffffffffffffffffffffffffffffffffffffffffffff1916908160001a9053508080600101915050613911565b82995050505050505050505095945050505050565b604080519081016040528060008152602001600073ffffffffffffffffffffffffffffffffffffffff1681525090565b828054600181600116156101000203166002900490600052602060002090601f016020900481019282601f10613a4a57805160ff1916838001178555613a78565b82800160010185558215613a78579182015b82811115613a77578251825591602001919060010190613a5c565b5b509050613a859190613ab5565b5090565b815481835581811115613ab057818360005260206000209182019101613aaf9190613ab5565b5b505050565b613ad791905b80821115613ad3576000816000905550600101613abb565b5090565b9056fe53656e64657220697320616c72656164792061206f776e6572206f6620746f6b656e63616c6c6572206973206e6f7420746865206f776e6572206f6620746f6b656e204964536f6c7574696f6e206d75737420626520756e6971756520746f206d696e74206120746f6b656e2e6164647265737320697320696e76616c6964206f7220746f6b656e496420616c726561647920657869737473a165627a7a72305820dcf32f28bebb7e94a22e2d362a385b4bb96c5a6da8ac3b959b35fc562795b9b4002968747470733a2f2f73332d75732d776573742d322e616d617a6f6e6177732e636f6d2f756461636974792d626c6f636b636861696e2f63617073746f6e652f",
  "source": "pragma solidity >=0.4.21 <0.6.0;\n\n// TODO define a contract call to the zokrates generated solidity contract <Verifier> or <renamedVerifier>\nimport \"./Verifier.sol\";\nimport \"./ERC721Mintable.sol\";\n\ncontract SquareVerifier is Verifier {\n\n}\n\n// TODO define another contract named SolnSquareVerifier that inherits from your ERC721Mintable class\ncontract SolnSquareVerifier is ERC721Mintable{\n\nVerifier verifier;\n\nconstructor(address _address) ERC721Mintable() public{\n    verifier = Verifier(_address);\n}\n\n// TODO define a solutions struct that can hold an index & an address\nstruct Solution {\n    uint solutionId;\n    address solutionAddress;\n}\n\n// TODO define an array of the above struct\nSolution[] solutions;\n\n// TODO define a mapping to store unique solutions submitted\nmapping(bytes32 => Solution) private solutionsSubmitted;\n\n\n// TODO Create an event to emit when a solution is added\nevent solutionAdded(address _address);\n\n\n// TODO Create a function to add the solutions to the array and emit the event\nfunction addSolution(\n    address _solutionadd,\n    uint _id,\n    bytes32 key\n    ) public {\n        Solution memory solution = Solution({solutionId : _id,solutionAddress:_solutionadd});\n        solutionsSubmitted[key] = solution;\n        solutions.push(solution);\n    }\n\n\nfunction getKey(uint[2] memory a, uint[2][2] memory b,uint[2] memory c, uint[2] memory input) public view returns (bytes32){\n    return  keccak256(abi.encodePacked(a,b,c,input));\n}\n\n// TODO Create a function to mint new NFT only after the solution has been verified\n//  - make sure the solution is unique (has not been used before)\n//  - make sure you handle metadata as well as tokenSuplly\nfunction mintNewNFT\n(\naddress _to,\nuint256 _tokenId,\nuint[2] memory a,\nuint[2][2] memory b,\nuint[2] memory c,\nuint[2] memory input\n) public{\n        bytes32 key = getKey(a, b, c, input);\n        require(solutionsSubmitted[key].solutionAddress == address(0), \"Solution must be unique to mint a token.\");\n\t\trequire(verifier.verifyTx(a,b,c, input), \"Incorrect solution\");\n\t\taddSolution(_to, _tokenId, key);\n\t\tsuper.mint(_to, _tokenId);\n\t}\n\n}\n\n\n\n\n\n\n\n\n\n\n\n\n\n\n\n\n\n\n\n\n\n\n\n\n\n",
  "sourcePath": "C:/Users/purav/OneDrive/Documents/Blockchain-Capstone-master/Blockchain-Capstone-master/eth-contracts/contracts/SolnSquareVerifier.sol",
  "compiler": {
    "name": "solc",
    "version": "0.5.2+commit.1df8f40c.Emscripten.clang"
  },
  "schemaVersion": "3.0.12",
  "updatedAt": "2019-09-14T11:22:42.621Z",
  "devdoc": {
    "methods": {
      "isApprovedForAll(address,address)": {
        "details": "Tells whether an operator is approved by a given owner",
        "params": {
          "operator": "operator address which you want to query the approval of",
          "owner": "owner address which you want to query the approval of"
        },
        "return": "bool whether the given operator is approved by the given owner"
      },
      "setApprovalForAll(address,bool)": {
        "details": "Sets or unsets the approval of a given operator An operator is allowed to transfer all tokens of the sender on their behalf",
        "params": {
          "approved": "representing the status of the approval to be set",
          "to": "operator address to set the approval"
        }
      },
      "supportsInterface(bytes4)": {
        "details": "implement supportsInterface(bytes4) using a lookup table"
      },
      "tokenByIndex(uint256)": {
        "details": "Gets the token ID at a given index of all the tokens in this contract Reverts if the index is greater or equal to the total number of tokens",
        "params": {
          "index": "uint256 representing the index to be accessed of the tokens list"
        },
        "return": "uint256 token ID at the given index of the tokens list"
      },
      "tokenOfOwnerByIndex(address,uint256)": {
        "details": "Gets the token ID at a given index of the tokens list of the requested owner",
        "params": {
          "index": "uint256 representing the index to be accessed of the requested tokens list",
          "owner": "address owning the tokens list to be accessed"
        },
        "return": "uint256 token ID at the given index of the tokens list owned by the requested address"
      },
      "totalSupply()": {
        "details": "Gets the total amount of tokens stored by the contract",
        "return": "uint256 representing the total amount of tokens"
      }
    }
  },
  "userdoc": {
    "methods": {}
  }
}